:020000040800F2
:10000000000002209D140008011F0008071F0008BF
:100010000D1F0008131F0008191F00080000000032
:10002000000000000000000000000000ED140008C7
:100030001F1F000800000000ED1400082D1F00081D
:10004000ED140008ED140008ED140008ED1400088C
:10005000ED140008ED140008ED140008ED1400087C
:10006000ED140008ED140008ED140008ED1400086C
:10007000ED140008ED140008ED140008ED1400085C
:10008000ED140008ED140008ED140008ED1400084C
:10009000ED140008ED140008ED140008ED1400083C
:1000A000ED140008ED140008ED140008ED1400082C
:1000B000ED140008ED140008ED140008ED1400081C
:1000C000ED140008ED140008ED140008ED1400080C
:1000D000ED140008ED140008ED140008ED140008FC
:1000E000ED140008ED14000800000000ED140008F5
:1000F000ED140008ED140008ED140008ED140008DC
:10010000ED140008ED140008ED140008ED140008CB
:10011000ED140008ED140008ED140008ED140008BB
:10012000ED140008ED140008ED140008ED140008AB
:10013000ED140008ED140008ED140008ED1400089B
:1001400000000000000000000000000000000000AF
:10015000ED140008ED140008ED140008ED1400087B
:10016000ED140008ED140008ED140008ED1400086B
:10017000ED140008ED140008ED140008ED1400085B
:10018000ED140008ED140008ED140008ED1400084B
:10019000ED140008ED140008ED140008ED1400083B
:1001A000ED140008ED140008ED140008ED1400082B
:1001B000ED140008ED140008ED140008ED1400081B
:1001C000ED140008ED140008ED140008ED1400080B
:1001D000ED140008391F0008ED140008ED140008A4
:1001E000ED140008ED140008ED140008ED140008EB
:1001F000ED140008ED140008ED140008ED140008DB
:10020000ED140008ED140008ED140008ED140008CA
:10021000ED140008ED140008ED140008ED140008BA
:10022000ED140008ED140008ED14000800000000B3
:10023000ED140008ED14000800000000ED140008A3
:10024000ED140008ED140008ED140008ED1400088A
:10025000ED140008ED140008ED140008ED1400087A
:10026000ED140008ED140008ED140008ED1400086A
:10027000ED140008ED140008ED1400080000000063
:10028000ED140008ED140008ED1400080000000053
:1002900000000000ED14000810B5054C237833B9B8
:1002A000044B13B10448AFF300800123237010BD49
:1002B000F0020020000000001821010808B5034BDF
:1002C0001BB103490348AFF3008008BD00000000E4
:1002D000F40200201821010853B94AB9002908BFC7
:1002E00000281CBF4FF0FF314FF0FF3000F070B915
:1002F000ADF1080C6DE904CE00F006F8DDF804E07D
:10030000DDE9022304B070472DE9F047089E0D4651
:1003100004460F46002B4AD18A42944665D9B2FA68
:1003200082F343B102FA03FCC3F120029F4020FA9A
:1003300002F217439C404FEA1C4E1FFA8CF5B7FBA4
:10034000FEF1220C0EFB117742EA074201FB05F099
:1003500090420AD91CEB020201F1FF3780F01C81A8
:10036000904240F2198102396244121AA4B2B2FBDF
:10037000FEF00EFB102244EA024400FB05F5A54204
:100380000AD91CEB040400F1FF3280F00781A5427A
:1003900040F204816444023840EA0140641B0021B9
:1003A0001EB1DC400023C6E90043BDE8F0878B4264
:1003B00008D9002E00F0ED800021C6E900050846AE
:1003C000BDE8F087B3FA83F1002949D1AB4202D3EB
:1003D000824200F2F880841A65EB0302012017467E
:1003E000002EE2D0C6E90047DFE702B9FFDEB2FA2D
:1003F00082F3002B40F090808A1A4FEA1C471FFAC4
:100400008CFE0121B2FBF7F507FB1520220C42EA16
:1004100000420EFB05F0904208D91CEB020205F1E8
:10042000FF3802D2904200F2CB804546121AA4B2A5
:10043000B2FBF7F007FB102244EA02440EFB00FE79
:10044000A64508D91CEB040400F1FF3202D2A645F0
:1004500000F2BB801046A4EB0E0440EA05409FE783
:10046000C1F120078B4022FA07FC4CEA030C05FA85
:1004700001F420FA07F3FD404FEA1C492343B5FB82
:10048000F9F81FFA8CFE09FB18551C0C44EA0544C8
:1004900008FB0EF5A54202FA01F200FA01F00BD9B1
:1004A0001CEB040408F1FF3A80F08880A54240F27A
:1004B0008580A8F102086444641B9DB2B4FBF9F383
:1004C00009FB134445EA044403FB0EFEA64508D984
:1004D0001CEB040403F1FF356CD2A6456AD9023B3C
:1004E000644443EA0843A3FB0295A4EB0E04AC4228
:1004F000C846AE4656D353D056B1B0EB080264EBB3
:100500000E0404FA07F7CA40CC401743C6E900744A
:1005100018460021BDE8F087C3F1200102FA03FC70
:1005200020FA01F225FA01F19D402A434FEA1C47C7
:100530001FFA8CFEB1FBF7F007FB1015110C41EA16
:10054000054100FB0EF58D4204FA03F408D91CEBBB
:10055000010100F1FF382FD28D422DD902386144BC
:10056000491B92B2B1FBF7F507FB151142EA0142B4
:1005700005FB0EF1914208D91CEB020205F1FF3890
:1005800016D2914214D9023D6244521A45EA004102
:1005900038E73146304608E73946E6E61046FBE6DE
:1005A0004845A9D2B9EB020865EB0C0E013BA3E765
:1005B0004546EAE72B4694E74046D1E7D0467BE73D
:1005C000023D624432E708460AE76444023842E7E3
:1005D000704700BF80B500AF154B164A1A600CF08B
:1005E00085FE0346124A536011480CF041FA124B43
:1005F000124A1A600EF0F2FD03460F4A53600E488D
:100600000CF036FA0E4B0F4A1A600DF071FF0346DC
:100610000B4A53600A480CF02BFA0CF005FA0A4812
:100620000DF0DAFC09480DF0D7FC00BF80BD00BF1B
:1006300010030020000000201803002014000020F8
:1006400020030020280000203C000020680000203B
:1006500080B500AF00F08CF900BF80BD80B586B0DA
:1006600000AF786039601E4B0022C3F88420BFF3CE
:100670004F8F00BF1A4BD3F880307B617B695B0BD7
:10068000C3F30E033B617B69DB08C3F30903FB6023
:100690003B695A0143F6E0731340FA689207104928
:1006A0001343C1F87432FB685A1EFA60002BEFD175
:1006B0003B695A1E3A61002BE5D1BFF34F8F00BF53
:1006C000BFF36F8F00BF00BF3B689B081A46796875
:1006D000044802F0DBFD034618461837BD4680BDCE
:1006E00000ED00E04C13002080B500AF0B4B1B6801
:1006F000002B04D10CF0E8F90346084A1360074BBD
:100700001B68012B07D10CF013FA0346002B02D013
:10071000024B00221A6000BF80BD00BF28030020EA
:1007200080B584B000AF4FF010431B68FB60204BD6
:100730001B68BB601F4B1B687B601F4B1B683B60CB
:1007400000F0B2F803461A461C4B1A801B4B1B885C
:10075000B3F52A4F06D141F6F07000F0D3F8184BEC
:1007600001221A70FB6803F03C53B3F1005F05D01F
:10077000FB6803F03C53B3F1105F14D1104B1B78AE
:1007800083F00103DBB2002B0DD0BB68B3F1FF3F58
:1007900009D17B68B3F1FF3F05D13B68B3F1FF3F5F
:1007A00001D100F00FF8002318461037BD4680BD78
:1007B000D8FF1F90E8FF1F90F8FF1F900E03002046
:1007C0000C03002080B586B000AF4FF010433B60B3
:1007D000BFF34F8F00BFBFF36F8F00BF304B5B691C
:1007E0002F4A23F4003353612D4B0022C3F85022CB
:1007F000BFF34F8F00BFBFF36F8F00BF00BF284B09
:100800000022C3F88420BFF34F8F00BF244B5B69E5
:10081000234A23F480335361BFF34F8F00BF204B33
:10082000D3F88030FB60FB685B0BC3F30E03BB6047
:10083000FB68DB08C3F309037B60BB685A0143F61E
:10084000E07313407A68920715491343C1F8743274
:100850007B685A1E7A60002BEFD1BB685A1EBA60C3
:10086000002BE5D1BFF34F8F00BFBFF36F8F00BFE9
:1008700000BF0C4B00221A60FFF7EAFE3B6804330E
:100880001B687B613B681B683B613B6983F308889D
:1008900000BF7B69984700BF1837BD4680BD00BFC9
:1008A00000ED00E010E000E080B592B000AF02F093
:1008B0008FFE0346002B1AD102F0C4FE0346002B24
:1008C00015D101233B623B1D184603F08FF8BB6B2B
:1008D0000A4A1360094B1B681B0C9AB2084B1A801A
:1008E00002F0D2FE0346002B01D102F093FE044B2E
:1008F0001B8818464837BD4680BD00BF2C0300202A
:100900003003002080B594B000AF0346FB8007F1B0
:100910000C03184603F06AF84023FB600223BB6314
:10092000FB881B043B640123BB624FF4AA433B6179
:1009300002F088FE0346002B15D102F049FE034663
:10094000002B10D107F10C03184602F0B7FF034645
:10095000002B08D102F0B0FE02F096FE0346002BF9
:1009600001D102F057FE00BF5037BD4680BD0000E8
:1009700080B500AF044BD3F8D832002B02D0024828
:100980000FF0A2FF00BF80BDE414002080B400AFD0
:10099000034B044A1A6000BFBD465DF8047B7047F4
:1009A00034030020E414002080B500AFFFF7EEFF11
:1009B00000BF80BD80B582B000AF0023FB71002373
:1009C000BB710C4B1B68002B0FD00A4B1B68002B14
:1009D0000BD000F02DF80346BB71BB797F2B04D1FF
:1009E000792000F077F80123FB71FB79184608376E
:1009F000BD4680BD3403002080B582B000AFFF2328
:100A0000FB710023BB7100F013F80346FB7100F08B
:100A10000FF80346BB71FA79BB795340DBB2FF2B69
:100A200001D0EC23FB71FB7918460837BD4680BD29
:100A300080B582B000AF0023BB700323FB700D4B69
:100A40007B600D4B1B68002B0FD0BB1C012118468F
:100A500001F09CFB0346FB707B68013B7B60FB78ED
:100A6000002B02D07B68002BEFD1BB7818460837EB
:100A7000BD4680BD80C3C9013403002080B584B069
:100A800000AF78600B46FB700323FB730E4BBB601B
:100A90000E4B1B68002B11D0FB781946786801F0CB
:100AA00075FB0346FB73BB68013BBB60FB7B002B04
:100AB00002D0BB68002BEFD1054BBB60FB7B184617
:100AC0001037BD4680BD00BFC0C62D0034030020D6
:100AD000E093040080B584B000AF0346FB710023AF
:100AE000FB600F4BD3F8BC32BB600E4B1B68002B76
:100AF00011D00C4B1B68D3F8BC32BB60FB1D01212D
:100B0000184601F00BFBFB680133FB60BB68D3F8B0
:100B10001432002BF7D100BF1037BD4680BD00BF97
:100B2000E41400203403002080B582B000AF00F050
:100B300053F80346B3F52A4F02D00123FB7101E0BD
:100B40000023FB71FB7918460837BD4680BD0000C5
:100B500080B500AF054B1B68002B05D0034B1B680D
:100B60009847024B00221A6000BF80BD3803002066
:100B700080B400AFBFF34F8F00BF064BDB6803F4B8
:100B8000E0620449044B1343CB60BFF34F8F00BFB7
:100B900000BFFDE700ED00E00400FA0580B483B07B
:100BA00000AF78607B681B7818460C37BD465DF84F
:100BB000047B704780B485B000AFF860B9607A609C
:100BC00000BF1437BD465DF8047B704780B582B026
:100BD00000AF7860FFF7CCFF80B592B000AF3B1D4F
:100BE000184602F003FF3B6918464837BD4680BDF2
:100BF00080B483B000AF786000BF0C37BD465DF8AD
:100C0000047B704780B487B000AF0346B9607A6058
:100C1000FB730023FB75FB7D18461C37BD465DF852
:100C2000047B704780B485B000AF786039600023E2
:100C3000FB73FB7B18461437BD465DF8047B704799
:100C400080B400AFBFF34F8F00BF064BDB6803F4E7
:100C5000E0620449044B1343CB60BFF34F8F00BFE6
:100C600000BFFDE700ED00E00400FA0580B483B0AA
:100C700000AF78607B681B7818460C37BD465DF87E
:100C8000047B704780B584B000AFF860B9607A60CB
:100C90007A68F968B86800F027F800BF1037BD46D9
:100CA00080BD80B582B000AF7860FFF7C9FF80B427
:100CB00085B000AF786039600023FB73FB7B18467A
:100CC0001437BD465DF8047B704780B485B000AF33
:100CD000786039600023FB73FB7B18461437BD46F0
:100CE0005DF8047B7047000080B596B000AFF860F7
:100CF000B9607A600023FB630023BB6300237B633E
:100D00000023FB640023BB6400237B64BB6803F106
:100D1000E0433B648D4B5B6801338C4A536007F1C1
:100D2000100318460BF01AFC0BF0A0FCBA693B6CE0
:100D3000B3FBF2F101FB02F29B1A002B40F0B480EE
:100D4000BB693A6CB2FBF3F3BA6902FB03F3FB63D2
:100D5000BB697A689A4229D8FA6BBB69B2FBF3F394
:100D6000BB63FB6BBA69194679480BF045F9002360
:100D70007B650BE0FA687B6D13441978744A7B6DD0
:100D800013440A461A707B6D01337B657A6D7B686C
:100D90009A42EFD3FB6B002118460BF071FAFB6B04
:100DA000BA6919466A480BF0BDF9F2E1BB697A6885
:100DB000B2FBF3F37B63BA697B68B3FBF2F101FB2F
:100DC00002F29B1AFB64FA6BBB69B2FBF3F3BB63E1
:100DD00000233B6536E0BB69BA6B02FB03F3BA69DB
:100DE00019465B480BF008F900237B650BE0FA68B5
:100DF0007B6D13441978564A7B6D13440A461A706A
:100E00007B6D01337B65BB697A6D9A42EFD3BB6919
:100E1000BA6B02FB03F3002118460BF031FABB69F1
:100E2000BA6B02FB03F3BA69194649480BF07AF929
:100E3000BB6B0133BB63BB69FA681344FB603B6D5A
:100E400001333B657B6B3A6D9A42C4D3BB69BA6B85
:100E500002FB03F3BA6919463D480BF0CDF80023B5
:100E60007B650BE0FA687B6D13441978384A7B6D1B
:100E700013440A461A707B6D01337B657A6DFB6CF7
:100E80009A42EFD3BB69BA6B02FB03F30021184609
:100E90000BF0F6F9BB69BA6B02FB03F3BA691946AA
:100EA0002B480BF03FF974E1BA693B6CB3FBF2F1EC
:100EB00001FB02F29B1ABB64BB693A6CB2FBF3F311
:100EC000BA6902FB03F3FB63BB697A689A4200F2DA
:100ED0009F80FA6BBB69B2FBF3F3BB63BB69BA6B70
:100EE00002FB03F3BA69194619480BF085F8BA6C8E
:100EF0007B681A44BB699A4224D800237B650BE0C7
:100F0000FA687B6D1A44796DBB6C0B441178104AFA
:100F1000D1547B6D01337B657A6D7B689A42EFD348
:100F2000BB69BA6B02FB03F3002118460BF0A8F96A
:100F3000BB69BA6B02FB03F3BA69194604480BF0AC
:100F4000F1F826E100237B6510E000BF3C13002090
:100F50003C030020FA687B6D1A44796DBB6C0B442E
:100F600011788F4AD1547B6D01337B65BA69BB6CB4
:100F7000D31A7A6D9A42EDD3BB69BA6B02FB03F3C5
:100F8000002118460BF07CF9BB69BA6B02FB03F336
:100F9000BA69194682480BF0C5F8BB6B0133BB63D5
:100FA000BB69BA6B02FB03F3BA6919467C480BF0C4
:100FB00023F8BA69BB6CD31AFA681344FB600023A8
:100FC0007B650BE0FA687B6D13441978744A7B6D7E
:100FD00013440A461A707B6D01337B65BA6C7B68DB
:100FE0001A44BB69D31A7A6D9A42EBD3BB69BA6BC8
:100FF00002FB03F3002118460BF042F9BB69BA6B00
:1010000002FB03F3BA69194665480BF08BF8C0E0A0
:10101000FA6BBB69B2FBF3F3BB63BB69BA6B02FB50
:1010200003F3BA6919465E480AF0E6FF00237B65C0
:101030000BE0FA687B6D1A44796DBB6C0B44117838
:10104000574AD1547B6D01337B65BA69BB6CD31AA7
:101050007A6D9A42EDD3BB69BA6B02FB03F30021B0
:1010600018460BF00DF9BB69BA6B02FB03F3BA69C2
:1010700019464B480BF056F8BA69BB6CD31AFA689C
:101080001344FB60BA69BB6CD21AFB6B1344FB635D
:10109000BB69BA6CD31A7A6813447B64BB697A6CF7
:1010A000B2FBF3F37B63BA697B6CB3FBF2F101FB38
:1010B00002F29B1AFB64BB6B0133BB6300233B65ED
:1010C00036E0BB69BA6B02FB03F3BA6919463448D0
:1010D0000AF092FF00237B650BE0FA687B6D1344F6
:1010E00019782F4A7B6D13440A461A707B6D0133C1
:1010F0007B65BB697A6D9A42EFD3BB69BA6B02FB21
:1011000003F3002118460BF0BBF8BB69BA6B02FB76
:1011100003F3BA69194622480BF004F8BB6B01339C
:10112000BB63BB69FA681344FB603B6D01333B65ED
:101130007B6B3A6D9A42C4D3BB69BA6B02FB03F373
:10114000BA69194616480AF057FF00237B650BE081
:10115000FA687B6D13441978114A7B6D13440A4673
:101160001A707B6D01337B657A6DFB6C9A42EFD30D
:10117000BB69BA6B02FB03F3002118460BF080F841
:10118000BB69BA6B02FB03F3BA69194604480AF05B
:10119000C9FF0BF019FA00BF5837BD4680BD00BF2C
:1011A0003C03002080B400AF034B044A1A6000BF28
:1011B000BD465DF8047B70474413002050140020A6
:1011C00080B500AFFFF7EEFF00BF80BD80B582B0F5
:1011D00000AF0023FB710023BB710C4B1B68002B7D
:1011E0000FD00A4B1B68002B0BD000F02DF80346E4
:1011F000BB71BB797F2B04D1792000F077F80123F4
:10120000FB71FB7918460837BD4680BD44130020AA
:1012100080B582B000AFFF23FB710023BB7100F0EB
:1012200013F80346FB7100F00FF80346BB71FA791F
:10123000BB795340DBB2FF2B01D0EC23FB71FB7970
:1012400018460837BD4680BD80B582B000AF002388
:10125000BB700123FB7000237B600E4B1B68002BCF
:1012600012D00C4B1868B91C4FF4FA63012208F035
:1012700003F90346FB707B6801337B60FB78002B2E
:1012800002D07B68012BECD9BB7818460837BD46E5
:1012900080BD00BF4413002080B584B000AF7860EB
:1012A0000B46FB700123FB730023BB600E4B1B68D6
:1012B000002B13D00C4B1868FB789AB24FF4FA63EA
:1012C000796808F0D9F80346FB73BB680133BB604B
:1012D000FB7B002B02D0BB68012BEBD9FB7B1846B4
:1012E0001037BD4680BD00BF4413002080B584B0D8
:1012F00000AF0346FB71FB79FB73084B1B68002BA7
:1013000008D0064B186807F10F014FF47A730122D9
:1013100008F024F800BF1037BD4680BD44130020FC
:1013200080B400AF034B044A1A6000BFBD465DF8AD
:10133000047B704748130020BC13002080B500AF29
:10134000FFF7EEFF00BF80BD80B582B000AF002385
:10135000FB710023BB710C4B1B68002B0FD00A4B99
:101360001B68002B0BD000F02DF80346BB71BB7936
:101370007F2B04D1792000F077F80123FB71FB79F2
:1013800018460837BD4680BD4813002080B582B09E
:1013900000AFFF23FB710023BB7100F013F803467D
:1013A000FB7100F00FF80346BB71FA79BB7953402B
:1013B000DBB2FF2B01D0EC23FB71FB791846083719
:1013C000BD4680BD80B582B000AF0023BB70012355
:1013D000FB7000237B600E4B1B68002B12D00C4B64
:1013E0001868B91C4FF4FA63012208F045F8034667
:1013F000FB707B6801337B60FB78002B02D07B683D
:10140000012BECD9BB7818460837BD4680BD00BF1C
:101410004813002080B584B000AF78600B46FB70A5
:101420000123FB730023BB600E4B1B68002B13D002
:101430000C4B1868FB789AB24FF4FA63796808F09D
:101440001BF80346FB73BB680133BB60FB7B002BBF
:1014500002D0BB68012BEBD9FB7B18461037BD4689
:1014600080BD00BF4813002080B584B000AF0346A4
:10147000FB71FB79FB73084B1B68002B08D0064BF4
:10148000186807F10F014FF47A73012207F066FF25
:1014900000BF1037BD4680BD48130020DFF834D0B0
:1014A00001F004FC0C480D490D4A002302E0D45819
:1014B000C4500433C4188C42F9D30A4A0A4C00239E
:1014C00001E013600432A242FBD310F0F1FD00F002
:1014D0000FF870470000022000000020F0020020FA
:1014E000C0210108F002002050420020FEE7000069
:1014F00080B584B000AF414B5B6903F40033002B2F
:101500001BD1BFF34F8F00BFBFF36F8F00BF3B4BAB
:101510000022C3F85022BFF34F8F00BFBFF36F8F7D
:1015200000BF364B5B69354A43F400335361BFF368
:101530004F8F00BFBFF36F8F00E000BF2F4B5B6981
:1015400003F48033002B38D12C4B0022C3F88420C5
:10155000BFF34F8F00BF294BD3F88030FB60FB688F
:101560005B0BC3F30E03BB60FB68DB08C3F309032B
:101570007B60BB685A0143F6E07313407A689207B8
:101580001E491343C1F860327B685A1E7A60002BF3
:10159000EFD1BB685A1EBA60002BE5D1BFF34F8F65
:1015A00000BF164B5B69154A43F480335361BFF3A8
:1015B0004F8F00BFBFF36F8F00E000BF01F0FEFB55
:1015C00000F020F800F084F900F0BAF800F096F886
:1015D00000F0BCFC00F030F900F0DEF808480AF03A
:1015E000A7FC0AF0F1FFFFF79BF80346002B01D19F
:1015F000FEF7F0FFFFF778F8FCE700BF00ED00E032
:101600007013002080B59CB000AF07F124034C227A
:101610000021184610F02EFD3B1D20220021184607
:1016200010F028FD022004F0CFFA00233B60314B7C
:10163000DB6A304A23F00103D3622E4BDB6A03F0EE
:1016400001033B602C4B9B692B4A43F4404393615D
:10165000294B9B6903F440433B603B6800BF264B2A
:101660009B6903F40053B3F5005FF8D121237B623B
:101670004FF48033BB620123FB630223BB6402236C
:10168000FB6405233B65A0237B650223BB65042324
:10169000FB6502233B6608237B660023BB660023B1
:1016A000FB6607F12403184604F0F6FF0346002BFF
:1016B00001D000F0E5F93F237B600323BB600023EA
:1016C000FB6008233B6140237B614023BB614FF4F7
:1016D0008063FB6140233B623B1D0221184605F0FD
:1016E00035FC0346002B01D000F0CAF900BF70376B
:1016F000BD4680BD000400580048025880B500AFC8
:101700000D4B0E4A1A600C4B00221A710A4B002234
:101710005A71094B00225A61074B00229A61064B0D
:1017200003221A62044801F04DFD0346002B01D04C
:1017300000F0A6F900BF80BD4C130020004C0258F9
:1017400080B500AF124B134A1A60114B01225A6048
:101750000F4B01229A600E4B1022DA600C4B1922BB
:101760001A610B4B4FF480725A61094B00229A6147
:10177000074B0022DA61064B00221A62044804F08B
:101780006DFA0346002B01D000F07AF900BF80BD4E
:10179000701300200050005280B500AF244B254A42
:1017A0001A60234B4FF4E1325A60214B00229A60B9
:1017B0001F4B0022DA601E4B00221A611C4B0C22C8
:1017C0005A611B4B00229A61194B0022DA61184BB7
:1017D00000221A62164B00225A62154B00229A62AE
:1017E000002300220021124808F090FE0346002B3F
:1017F00001D000F045F900210D4808F02AFF03460A
:10180000002B01D000F03CF90021094808F05FFFEF
:101810000346002B01D000F033F9054808F0E0FE44
:101820000346002B01D000F02BF900BF80BD00BFA4
:10183000BC1300200078004080B500AF224B234A43
:101840001A60214B4FF4E1325A601F4B00229A601C
:101850001D4B0022DA601C4B00221A611A4B0C222D
:101860005A61194B00229A61174B0022DA61164B1C
:1018700000221A62144B00225A62134B00229A6211
:10188000114807F01BFD0346002B01D000F0F8F8CB
:1018900000210D4808F0DDFE0346002B01D000F0CA
:1018A000EFF80021084808F012FF0346002B01D092
:1018B00000F0E6F8044808F093FE0346002B01D040
:1018C00000F0DEF800BF80BD50140020004400404E
:1018D00080B58EB000AF07F1240300221A605A6071
:1018E0009A60DA601A61614BD3F8E0305F4A43F0E6
:1018F0000803C2F8E0305D4BD3F8E03003F0080392
:101900003B623B6A594BD3F8E030584A43F002033C
:10191000C2F8E030554BD3F8E03003F00203FB612E
:10192000FB69524BD3F8E030504A43F00103C2F850
:10193000E0304E4BD3F8E03003F00103BB61BB69EC
:101940004A4BD3F8E030494A43F01003C2F8E03084
:10195000464BD3F8E03003F010037B617B69434BC7
:10196000D3F8E030414A43F04003C2F8E0303F4B47
:10197000D3F8E03003F040033B613B693B4BD3F8C5
:10198000E0303A4A43F08003C2F8E030374BD3F8F6
:10199000E03003F08003FB60FB68344BD3F8E030A9
:1019A000324A43F02003C2F8E030304BD3F8E03045
:1019B00003F02003BB60BB682C4BD3F8E0302B4A0C
:1019C00043F00403C2F8E030284BD3F8E03003F0D2
:1019D00004037B607B6801221021254802F068FD2A
:1019E00001224FF48061234802F062FD00221021A1
:1019F000214802F05DFD10237B620123BB620023BE
:101A0000FB6200233B6307F124031946184802F0E8
:101A100095FA01237B620023BB620023FB6207F17E
:101A200024031946154802F089FA4FF480637B625B
:101A30000123BB620023FB6200233B6307F1240305
:101A400019460C4802F07AFA10237B620123BB622C
:101A50000023FB6200233B6307F124031946064879
:101A600002F06CFA00BF3837BD4680BD0044025812
:101A700000100258001402580000025800080258D2
:101A800080B400AF72B600BFFEE7000080B582B040
:101A900000AF0C4BD3F8F4300A4A43F00203C2F80B
:101AA000F430084BD3F8F43003F002037B607B681A
:101AB00000220F216FF0010001F041FB00BF083749
:101AC000BD4680BD0044025880B485B000AF786048
:101AD0007B681B680B4A93420ED10B4BD3F8E03066
:101AE000094A43F40023C2F8E030074BD3F8E03052
:101AF00003F40023FB60FB6800BF1437BD465DF8AC
:101B0000047B7047004C02580044025880B5BEB0B8
:101B100000AF786007F1E40300221A605A609A600F
:101B2000DA601A6107F12003C0220021184610F084
:101B3000A1FA7B681B68684A934240F0C8804FF066
:101B400000724FF00003C7E908230023FB6607F18A
:101B50002003184605F086FD0346002B01D0FFF751
:101B60008FFF5E4BD3F8D4305C4A43F48043C2F815
:101B7000D4305A4BD3F8D43003F48043FB61FB6973
:101B8000564BD3F8E030554A43F04003C2F8E030FA
:101B9000524BD3F8E03003F04003BB61BB694F4BBD
:101BA000D3F8E0304D4A43F02003C2F8E0304B4B0D
:101BB000D3F8E03003F020037B617B69474BD3F817
:101BC000E030464A43F00203C2F8E030434BD3F81A
:101BD000E03003F002033B613B69404BD3F8E03057
:101BE0003E4A43F00803C2F8E0303C4BD3F8E03003
:101BF00003F00803FB60FB684023C7F8E4300223CE
:101C0000C7F8E8300023C7F8EC300323C7F8F030FA
:101C10000A23C7F8F43007F1E4031946304802F00C
:101C20008DF9C023C7F8E4300223C7F8E830002359
:101C3000C7F8EC300323C7F8F0300923C7F8F430B5
:101C400007F1E4031946274802F078F94FF40073CE
:101C5000C7F8E4300223C7F8E8300023C7F8EC30B7
:101C60000323C7F8F0300A23C7F8F43007F1E40380
:101C700019461C4802F062F90423C7F8E430022335
:101C8000C7F8E8300023C7F8EC300323C7F8F0307A
:101C90000923C7F8F43007F1E4031946124802F0AB
:101CA0004DF94FF40063C7F8E4300223C7F8E83079
:101CB0000023C7F8EC300323C7F8F0300923C7F836
:101CC000F43007F1E4031946084802F037F900BF81
:101CD000F837BD4680BD00BF005000520044025896
:101CE000001802580014025800040258000C025850
:101CF00080B5BEB000AF786007F1E40300221A603F
:101D00005A609A60DA601A6107F12003C02200214C
:101D1000184610F0AFF97B681B68724A934240F096
:101D200091804FF002024FF00003C7E9082300231F
:101D3000C7F8983007F12003184605F093FC0346D6
:101D4000002B01D0FFF79CFE674BD3F8E830664AC2
:101D500043F08043C2F8E830634BD3F8E83003F037
:101D60008043FB61FB69604BD3F8E0305E4A43F08F
:101D70000203C2F8E0305C4BD3F8E03003F002031A
:101D8000BB61BB69584BD3F8E030574A43F00103BD
:101D9000C2F8E030544BD3F8E03003F001037B612C
:101DA0007B69514BD3F8E0304F4A43F02003C2F82F
:101DB000E0304D4BD3F8E03003F020033B613B694A
:101DC0001023C7F8E4300223C7F8E8300023C7F82F
:101DD000EC300023C7F8F0300B23C7F8F43007F1DC
:101DE000E4031946414802F0A9F84FF48073C7F89C
:101DF000E4300223C7F8E8300023C7F8EC300023B2
:101E0000C7F8F0300B23C7F8F43007F1E4031946A4
:101E1000374802F093F84FF48073C7F8E430022398
:101E2000C7F8E8300023C7F8EC300023C7F8F030DB
:101E30000723C7F8F43007F1E40319462D4802F0F0
:101E40007DF84AE07B681B682B4A934245D14FF0EE
:101E500002024FF00003C7E908230023C7F89830B7
:101E600007F12003184605F0FDFB0346002B01D0C7
:101E7000FFF706FE1C4BD3F8E8301B4A43F400334F
:101E8000C2F8E830184BD3F8E83003F40033FB60B5
:101E9000FB68154BD3F8E030134A43F00803C2F84F
:101EA000E030114BD3F8E03003F00803BB60BB68AF
:101EB0006023C7F8E4300223C7F8E8300023C7F8EE
:101EC000EC300023C7F8F0300723C7F8F43007F1EF
:101ED000E4031946094802F031F800BFF837BD465F
:101EE00080BD00BF00780040004402580004025842
:101EF000000002580014025800440040000C025830
:101F000080B400AFFEE780B400AFFEE780B400AF5E
:101F1000FEE780B400AFFEE780B400AFFEE780B418
:101F200000AF00BFBD465DF8047B704780B500AFD1
:101F300000F0B6FF00BF80BD80B500AF024802F0E0
:101F4000E2FC00BF80BD00BFC429002080B500AF07
:101F50000022134913480EF087FC0346002B01D0E2
:101F6000FFF78EFD10490F480EF0DEFC0346002BF4
:101F700001D0FFF785FD0D490A480EF0A5FB034689
:101F8000002B01D0FFF77CFD06480EF003FD034651
:101F9000002B01D0FFF774FD03F050FE00BF80BDA1
:101FA000A8000020E414002020020020940000205B
:101FB00080B500AF0022094909480EF09FFB09498E
:101FC00007480EF0BDFB4FF4007000F00DF903461A
:101FD000054A13600023184680BD00BFC41F0020BF
:101FE000E4140020C4170020C017002080B400AF04
:101FF00000231846BD465DF8047B704780B483B06B
:1020000000AF03463960FB711346BB80FB79232B7D
:102010004AD801A252F823F0A9200008A9200008FC
:10202000A9200008A9200008A9200008A92000086C
:10203000A9200008A9200008A9200008A92000085C
:10204000A9200008A9200008A9200008A92000084C
:10205000A9200008A9200008A9200008A92000083C
:10206000A9200008A9200008A9200008A92000082C
:10207000A9200008A9200008A9200008A92000081C
:10208000A9200008A9200008A9200008A92000080C
:10209000A9200008A9200008A9200008A9200008FC
:1020A000A9200008A920000800BF002318460C370B
:1020B000BD465DF8047B704780B584B000AF7860A2
:1020C0003960796813480EF03BFB12480EF096FB1E
:1020D000104BD3F8BC32002B17D00F4B1B68002BD2
:1020E00013D00023FB600BE00B4B18687A68FB6889
:1020F00013441B78194600F09CF8FB680133FB6021
:102100003B681B68FA689A42EED3002318461037E2
:10211000BD4680BDE4140020C017002080B584B007
:1021200000AF78600B467B800023FB730D4BD3F828
:10213000BC32BB60BB68D3F81432002B01D0012342
:102140000BE07B881A46796806480EF0D7FA0548F6
:102150000EF014FB0346FB73FB7B18461037BD469D
:1021600080BD00BFE414002080B487B000AFF860E9
:10217000B9601346FB710023FB7597F917301846B9
:102180001C37BD465DF8047B7047000080B584B005
:1021900000AF78603960134B1B68002B1DD0002303
:1021A000FB6014E00F4B1B68184600F06FF8B86036
:1021B000BB68B3F1FF3F01D103230FE07A68FB68EE
:1021C0001344BA68D2B21A70FB680133FB60FA6834
:1021D0003B689A42E6D3002300E0032318461037F9
:1021E000BD4680BDC017002080B584B000AF7860C8
:1021F00010200FF08BFE0346FB607B68013B1A4604
:10220000FB681A607B68013B1A46FB685A60FB68F2
:102210007A689A60FB689B689B0018460FF076FE10
:1022200003461A46FB68DA60FB6818461037BD465D
:1022300080BD80B483B000AF786039607B681B6874
:1022400001331A467B689B68B2FBF3F101FB03F391
:10225000D31A1A467B681A607B681A687B685B68C9
:102260009A4205D17B681B685A1E7B681A6007E09A
:102270007B68DA687B681B689B0013443A681A60C5
:1022800000BF0C37BD465DF8047B704780B483B057
:1022900000AF78607B685A687B681B689A4202D1FD
:1022A0004FF0FF3314E07B685B6801331A467B68AC
:1022B0009B68B2FBF3F101FB03F3D31A1A467B6868
:1022C0005A607B68DA687B685B689B0013441B6814
:1022D00018460C37BD465DF8047B704780B483B068
:1022E00000AF03463960FB713B6812221A80034B32
:1022F00018460C37BD465DF8047B7047C8000020C7
:1023000080B483B000AF03463960FB713B680422A0
:102310001A80034B18460C37BD465DF8047B7047A6
:10232000DC00002080B582B000AF03463960FB714D
:10233000FB79002B05D13A68074908480FF006FDE4
:1023400004E03A68044905480FF000FD024B1846C6
:102350000837BD4680BD00BFC427002030210108DA
:1023600080B582B000AF03463960FB713A6804491A
:1023700004480FF0EBFC024B18460837BD4680BD01
:10238000C42700204821010880B582B000AF034671
:102390003960FB713B681A221A8000F043F8024B47
:1023A00018460837BD4680BDE000002080B582B0E9
:1023B00000AF03463960FB71FB79002B05D13A6809
:1023C000074908480FF0C2FC04E03A680449054890
:1023D0000FF0BCFC024B18460837BD4680BD00BF5D
:1023E000C42700205C21010880B582B000AF0346FD
:1023F0003960FB71FB79002B05D13A680749084821
:102400000FF0A4FC04E03A68044905480FF09EFC74
:10241000024B18460837BD4680BD00BFC4270020C8
:102420006821010880B584B000AF0F4B1B68FB60CA
:102430000E4B1B68BB600E4B1B687B60FA687B68A9
:102440001344FB60FB68002B09D008220949F86897
:1024500000F014F804220849B86800F00FF800BF33
:102460001037BD4680BD00BF00E8F11F04E8F11F32
:1024700008E8F11FE2000020F200002080B487B0DD
:1024800000AFF860B9601346FB710023FB750023B1
:10249000FB7527E0FB681B0F092B0BD8FB681B0F94
:1024A000DAB2FB7D5B001946BB680B443032D2B216
:1024B0001A700AE0FB681B0FDAB2FB7D5B0019465D
:1024C000BB680B443732D2B21A70FB681B01FB6049
:1024D000FB7D5B000133BA68134400221A70FB7D58
:1024E0000133FB75FA7DFB799A42D3D300BF00BF5D
:1024F0001C37BD465DF8047B7047000080B5BAB05C
:1025000000AF786007F1D40300221A605A609A6025
:10251000DA601A6107F11003C022002118460FF09B
:10252000A9FD7B681B68344A934261D14FF4802235
:102530004FF00003C7E904234FF44013C7F8983065
:1025400007F11003184605F08DF80346002B01D063
:10255000FFF796FA03F072FB284BD3F8E030274AD6
:1025600043F00103C2F8E030244BD3F8E03003F02D
:102570000103FB60FB684FF40073C7F8D4300023FD
:10258000C7F8D8300023C7F8DC3007F1D403194668
:102590001B4801F0D3FC4FF4C053C7F8D4300223DA
:1025A000C7F8D8300023C7F8DC300023C7F8E03084
:1025B0000A23C7F8E43007F1D4031946104801F0A4
:1025C000BDFC0E4BD3F8D8300C4A43F00063C2F880
:1025D000D8300A4BD3F8D83003F00063BB60BB6837
:1025E00000220021652000F0AAFD652000F0C1FD59
:1025F00000BFE837BD4680BD0000084000440258D7
:102600000000025880B582B000AF78607B681B681C
:102610000B4A93420FD10B4BD3F8D830094A23F021
:102620000063C2F8D8304FF4D051074801F036FEAD
:10263000652000F0ACFD00BF0837BD4680BD00BF7F
:1026400000000840004402580000025880B582B0E3
:1026500000AF78607B68D3F808257B6803F2C44339
:10266000194610460EF0E3F900BF0837BD4680BD9D
:1026700080B582B000AF78600B46FB707B68D3F802
:102680000805FA7879681346DB0013449B000B4475
:1026900003F522731A68FB7819460EF01DFA00BF85
:1026A0000837BD4680BD80B582B000AF78600B466C
:1026B000FB707B68D3F80805FA7879681346DB006D
:1026C00013449B000B4448331A68FB7819460EF0FC
:1026D000B6FA00BF0837BD4680BD80B582B000AFF6
:1026E00078607B68D3F8083518460EF0F0FB00BF21
:1026F0000837BD4680BD80B584B000AF7860012347
:10270000FB737B681B69002B02D10023FB7308E07D
:102710007B681B69022B02D10123FB7301E0FFF7E9
:10272000AFF97B68D3F80835FA7B114618460EF0EE
:102730008AFB7B68D3F8083518460EF032FB00BFE1
:102740001037BD4680BD000080B582B000AF786014
:102750007B68D3F8083518460EF085FB7B681B684C
:1027600003F560631B687A68126802F5606243F0E3
:10277000010313607B681B6A002B05D0044B1B69A7
:10278000034A43F00603136100BF0837BD4680BD0E
:1027900000ED00E080B582B000AF78607B68D3F8D0
:1027A000083518460EF07BFB00BF0837BD4680BDDC
:1027B00080B582B000AF78600B46FB707B68D3F8C1
:1027C0000835FA78114618460EF0D3FB00BF0837DB
:1027D000BD4680BD80B582B000AF78600B46FB700F
:1027E0007B68D3F80835FA78114618460EF08FFB4F
:1027F00000BF0837BD4680BD80B582B000AF7860AD
:102800007B68D3F8083518460EF0E5FB00BF0837A3
:10281000BD4680BD80B582B000AF78607B68D3F8DC
:10282000083518460EF0E2FB00BF0837BD4680BDF4
:1028300080B582B000AF78607B681B78002B3ED1FA
:10284000214A7B68C2F808357B681F4AC3F8C82252
:102850001D4B1E4A1A601C4B09225A601A4B022259
:102860001A61194B0022DA60174B02229A61164B4B
:102870000022DA61144B00221A62134B00225A62C2
:10288000114B00229A62104B0122DA620E4B002299
:102890001A630D4801F080FE0346002B01D0FFF7BC
:1028A000EFF88021084803F04EF940220021064845
:1028B00003F002F980220121034803F0FDF8002310
:1028C00018460837BD4680BDC429002000000840D6
:1028D00080B584B000AF78600023FB730023BB7326
:1028E0007B68D3F8C832184601F07AFF0346FB73C1
:1028F000FB7B184600F078F90346BB73BB7B184698
:102900001037BD4680BD80B584B000AF786000232D
:10291000FB730023BB737B68D3F8C832184601F001
:1029200082FF0346FB73FB7B184600F05DF903460C
:10293000BB73BB7B18461037BD4680BD80B584B0E5
:1029400000AF78600023FB730023BB737B68D3F870
:10295000C832184601F09CFF0346FB73FB7B184608
:1029600000F042F90346BB73BB7B18461037BD46E7
:1029700080BD80B584B000AF7860084611461A4625
:102980000346FB700B46BB7013463B800023FB7372
:102990000023BB737B68D3F8C802BB783A88F97808
:1029A00002F0A2FC0346FB73FB7B184600F01CF907
:1029B0000346BB73BB7B18461037BD4680BD80B550
:1029C00084B000AF78600B46FB700023FB730023DC
:1029D000BB737B68D3F8C832FA781146184602F008
:1029E000EBFC0346FB73FB7B184600F0FDF8034647
:1029F000BB73BB7B18461037BD4680BD80B584B025
:102A000000AF78600B46FB700023FB730023BB73A1
:102A10007B68D3F8C832FA781146184602F0A5FD53
:102A20000346FB73FB7B184600F0DEF80346BB73DE
:102A3000BB7B18461037BD4680BD80B584B000AF63
:102A400078600B46FB700023FB730023BB737B682D
:102A5000D3F8C832FA781146184602F0EAFD034668
:102A6000FB73FB7B184600F0BFF80346BB73BB7BD0
:102A700018461037BD4680BD80B485B000AF786081
:102A80000B46FB707B68D3F8C832FB6097F90330C4
:102A9000002B0BDAFB7803F07F02F9681346DB00AA
:102AA00013449B000B443E331B780BE0FB7803F090
:102AB0007F02F9681346DB0013449B000B4403F2CA
:102AC0007E231B7818461437BD465DF8047B70479B
:102AD00080B584B000AF78600B46FB700023FB73B9
:102AE0000023BB737B68D3F8C832FA7811461846C6
:102AF00002F0D5FB0346FB73FB7B184600F074F82D
:102B00000346BB73BB7B18461037BD4680BD80B5FE
:102B100086B000AFF8607A603B600B46FB72002322
:102B2000FB750023BB75FB68D3F8C802F97A3B68D4
:102B30007A6802F0DFFC0346FB75FB7D184600F067
:102B400053F80346BB75BB7D18461837BD4680BD9C
:102B500080B586B000AFF8607A603B600B46FB72D0
:102B60000023FB750023BB75FB68D3F8C802F97A14
:102B70003B687A6802F06AFC0346FB75FB7D1846E9
:102B800000F032F80346BB75BB7D18461837BD46CA
:102B900080BD80B582B000AF78600B46FB707B686B
:102BA000D3F8C832FA781146184602F08BFC034677
:102BB00018460837BD4680BD80B483B000AF78604A
:102BC000034B18460C37BD465DF8047B704700BFC9
:102BD000D02E002080B483B000AF786000BF0C37E7
:102BE000BD465DF8047B704780B485B000AF0346F6
:102BF000FB710023FB73FB79032B17D801A252F85A
:102C000023F000BF152C00081B2C0008212C000805
:102C1000272C00080023FB730BE00323FB7308E061
:102C20000123FB7305E00323FB7302E00323FB7323
:102C300000BFFB7B18461437BD465DF8047B704728
:102C400080B586B000AF7860144A154BD31A7B610B
:102C50007B693B61134B1B68002B02D1114B124A5D
:102C60001A60104B1A687B6813443A699A4207D27B
:102C70000FF018FA03460C221A604FF0FF3309E0F8
:102C8000084B1B68FB60074B1A687B681344054AB6
:102C90001360FB6818461837BD4680BD000002204F
:102CA00000040000F03000205042002080B400AF4B
:102CB000374BD3F88830364A43F47003C2F8883073
:102CC000344B1B6803F00F03062B07D8314B1B68EE
:102CD00023F00F032F4A43F0070313602E4B1B68AA
:102CE0002D4A43F0010313602B4B00221A612A4B3B
:102CF0001A682949294B13400B60264B1B6803F0C7
:102D00000803002B07D0234B1B6823F00F03214A35
:102D100043F007031360204B00229A611E4B0022F0
:102D2000DA611D4B00221A621B4B1D4A9A621A4B34
:102D30001C4ADA62184B1C4A1A63174B00225A636A
:102D4000154B194A9A63144B0022DA63124B164A48
:102D50001A64114B00225A640F4B1B680E4A23F46D
:102D6000802313600C4B00221A66104B1A68104B1C
:102D70001340B3F1005F02D20E4B01221A600E4BDA
:102D800043F2D2021A6000BFBD465DF8047B704773
:102D900000ED00E000200052004402587FEDF6EA0A
:102DA000000202020000FF01800201010010005C2D
:102DB0000000FFFF088100510040005280B582B042
:102DC00000AF032000F0B0F904F076FA0246154B8C
:102DD0009B691B0A03F00F031349CB5C03F01F032D
:102DE00022FA03F37B600F4B9B6903F00F030E4A3B
:102DF000D35C03F01F037A6822FA03F30B4A1360D3
:102E00000B4A7B6813600F2000F014F80346002B78
:102E100001D0012302E0FEF739FE002318460837EF
:102E2000BD4680BD00440258782101080001002001
:102E3000FC00002080B582B000AF7860154B1B7895
:102E4000002B01D1012321E0134B1A68114B1B7891
:102E500019464FF47A73B3FBF1F3B2FBF3F3184660
:102E600000F0A3F90346002B01D001230EE07B689C
:102E70000F2B0AD8002279684FF0FF3000F05FF97D
:102E8000064A7B681360002300E0012318460837D8
:102E9000BD4680BD08010020FC0000200401002088
:102EA00080B400AF064B1B781A46064B1B681344D0
:102EB000044A136000BFBD465DF8047B704700BF45
:102EC00008010020F430002080B400AF034B1B68E1
:102ED0001846BD465DF8047B704700BFF430002003
:102EE00080B584B000AF7860FFF7EEFFB8607B6814
:102EF000FB60FB68B3F1FF3F05D00A4B1B781A4615
:102F0000FB681344FB6000BFFFF7DEFF0246BB68AF
:102F1000D31AFA689A42F7D800BF00BF1037BD46EF
:102F200080BD00BF0801002080B400AF034B1B68C8
:102F30001B0C1846BD465DF8047B70470010005C12
:102F400080B485B000AF78607B6803F00703FB6056
:102F50000B4BDB68BB60BA684FF6FF031340BB60E6
:102F6000FB681A02BB681A43064B1343BB60044A52
:102F7000BB68D36000BF1437BD465DF8047B704763
:102F800000ED00E00000FA0580B400AF044BDB6800
:102F90001B0A03F007031846BD465DF8047B704723
:102FA00000ED00E080B483B000AF0346FB80B7F9CA
:102FB0000630002B0BDBFB8803F01F020749B7F933
:102FC00006305B09012000FA02F241F8232000BF1D
:102FD0000C37BD465DF8047B704700BF00E100E0A0
:102FE00080B483B000AF0346FB80B7F90630002BF6
:102FF00012DBFB8803F01F020A49B7F906305B09B0
:10300000012000FA02F2203341F82320BFF34F8F52
:1030100000BFBFF36F8F00BF00BF0C37BD465DF828
:10302000047B704700E100E080B483B000AF03464A
:103030003960FB80B7F90630002B0ADB3B68DAB257
:103040000C49B7F906301201D2B20B4483F80023C1
:103050000AE03B68DAB20849FB8803F00F03043B3F
:103060001201D2B20B441A7600BF0C37BD465DF890
:10307000047B704700E100E000ED00E080B489B01F
:1030800000AFF860B9607A60FB6803F00703FB618A
:10309000FB69C3F10703042B28BF0423BB61FB6951
:1030A0000433062B02D9FB69033B00E000237B615C
:1030B0004FF0FF32BB6902FA03F3DA43BB681A40F0
:1030C0007B699A404FF0FF317B6901FA03F3D943E2
:1030D0007B680B40134318462437BD465DF8047BDC
:1030E0007047000080B582B000AF78607B68013B1C
:1030F000B3F1807F01D301230FE00A4A7B68013BD3
:1031000053600F214FF0FF30FFF78EFF054B002279
:103110009A60044B07221A60002318460837BD4600
:1031200080BD00BF10E000E080B582B000AF7860E5
:103130007868FFF705FF00BF0837BD4680BD80B542
:1031400086B000AF0346B9607A60FB81FFF71CFFD1
:1031500078617A68B9687869FFF790FF0246B7F935
:103160000E3011461846FFF75FFF00BF1837BD4607
:1031700080BD80B582B000AF0346FB80B7F9063052
:103180001846FFF70FFF00BF0837BD4680BD80B56A
:1031900082B000AF0346FB80B7F906301846FFF750
:1031A0001FFF00BF0837BD4680BD80B582B000AFAD
:1031B00078607868FFF796FF034618460837BD46E3
:1031C00080BD000080B582B000AF78607B68002BC6
:1031D00001D1012354E07B685B7FDBB2002B05D17A
:1031E0007B6800221A777868FEF76EFC7B68022203
:1031F0005A777B681B79002B0CD17B681B68224AAD
:103200005A617B681B689A687B681B6822F0180209
:103210009A600CE07B6899687B68DB681A4678687E
:1032200000F048F90346002B01D0012328E07B6819
:103230005B79002B05D17B681B684FF0FF321A6168
:1032400004E07B681B687A6812691A617B681B68F6
:103250009B6823F060017B685A697B681B680A439E
:103260009A607B681B689B6823F080017B689A6981
:103270007B681B680A439A607B6801225A770023A7
:1032800018460837BD4680BDB71DC10480B586B05D
:1032900000AFF860B9607A6000233B61FB680222EE
:1032A0005A77FB681B689A68FB681B6842F001024A
:1032B0009A60FB681B6A032B06D0032B29D8012BCD
:1032C00019D0022B1ED024E000237B610AE07B6929
:1032D0009B00BA681A44FB681B6812681A607B6915
:1032E00001337B617A697B689A42F0D3FB681B6883
:1032F0001B683B610EE07A68B968F86800F012F864
:10330000386107E07A68B968F86800F099F83861C0
:1033100000E000BFFB6801225A773B691846183766
:10332000BD4680BD80B489B000AFF860B9607A60F6
:103330000023FB6123E0FB699B00BA6813441B7800
:103340001A06FB699B000133B9680B441B781B0408
:103350001A43FB699B000233B9680B441B781B02BC
:103360001A43FB699B000333B9680B441B78194669
:10337000FB681B680A431A60FB690133FB617B68C9
:103380009B08FA699A42D6D37B6803F00303002BAB
:103390004DD07B6803F00303012B07D1FB699B0031
:1033A000BA681344FA6812681B7813707B6803F0DC
:1033B0000303022B16D1FB699B00BA6813441B78E8
:1033C0001B021AB2FB699B000133B9680B441B78DE
:1033D0001BB213431BB27B83FB681B687B617B6959
:1033E0007A8B1A807B6803F00303032B1FD1FB69E0
:1033F0009B00BA6813441B781B021AB2FB699B003E
:103400000133B9680B441B781BB213431BB27B8397
:10341000FB681B687B617B697A8B1A80FB699B0068
:103420000233BA681344FA6812681B781370FB6899
:103430001B681B6818462437BD465DF8047B70473F
:1034400080B487B000AFF860B9607A6000237B6118
:1034500013E07B699B00BA6813441B881A047B69DC
:103460009B000233B9680B441B881946FB681B6834
:103470000A431A607B6901337B617B685B087A6968
:103480009A42E6D37B6803F00103002B09D0FB6866
:103490001B683B617B699B00BA6813441A883B69CF
:1034A0001A80FB681B681B6818461C37BD465DF810
:1034B000047B704780B487B000AFF860B9607A6071
:1034C0000023FB751F233B61BB6803F00103002B46
:1034D00002D10123FB7563E000BF3B695A1E3A61CC
:1034E000002B09D03B6903F01F03BA6822FA03F3EB
:1034F00003F00103002BF0D07B68182B46D801A203
:1035000052F823F0933500088D3500088D350008FA
:103510008D3500088D3500088D3500088D35000883
:103520008D350008813500088D3500088D3500087F
:103530008D3500088D3500088D3500088D35000863
:103540008D350008753500088D3500088D3500086B
:103550008D3500088D3500088D3500088D35000843
:103560008D350008693500083B69062B13D9012306
:10357000FB7510E03B69072B0FD90123FB750CE0AD
:103580003B690F2B0BD90123FB7508E00123FB7569
:1035900006E000BF04E000BF02E000BF00E000BFA3
:1035A000FB7D002B0DD1FB681B68BA685A61FB6874
:1035B0001B689B6823F01801FB681B687A680A4344
:1035C0009A60FB7D18461C37BD465DF8047B70474A
:1035D00080B400AF0C4BDB6803F00103002B0DD06F
:1035E000094B0A4A5A60084B094A5A60064BDB6885
:1035F00003F00103002B01D0012300E00023184653
:10360000BD465DF8047B70470020005223016745EA
:10361000AB89EFCD80B400AF094BDB68084A43F0BB
:103620000103D360064BDB6803F00103002B01D1DB
:10363000012300E000231846BD465DF8047B704777
:103640000020005280B400AF0C4B9B6903F00103D3
:10365000002B0DD0094B0A4A9A60084B094A9A6020
:10366000064B9B6903F00103002B01D0012300E00E
:1036700000231846BD465DF8047B704700200052C9
:103680003B2A19087F6E5D4C80B400AF094B9B69E3
:10369000084A43F001039361064B9B6903F0010361
:1036A000002B01D1012300E000231846BD465DF840
:1036B000047B70470020005280B582B000AF01212A
:1036C0004CF2503000F0B0F80346002B02D001233A
:1036D000FB7101E00023FB71FB79002B0BD1084B40
:1036E0009B69074A43F0020393614CF2503000F0AB
:1036F0005FF80346FB71FB7918460837BD4680BD6D
:103700000020005280B586B000AF78603960042395
:103710003B6100237B61FFF7D7FBF86010E07B681B
:10372000B3F1FF3F0CD0FFF7CFFB0246FB68D31A83
:103730007A689A4202D37B68002B01D103232DE0E3
:10374000184B1A693B6913403A699A42E7D03B68C3
:10375000012B04D1134B1A69134B13407B617B6916
:1037600023F00043002B0AD0104B9A697B69134366
:103770000E4A93610B4A7B69536101230EE03B685B
:10378000012B0AD1074B1B6903F48033B3F5803F4B
:1037900003D1044B4FF480325A6100231846183786
:1037A000BD4680BD002000520000EE17F83000201A
:1037B00080B584B000AF7860FFF786FBF86010E05A
:1037C0007B68B3F1FF3F0CD0FFF77EFB0246FB683E
:1037D000D31A7A689A4202D37B68002B01D1032363
:1037E0001AE00F4BDB6903F00103002BE8D10C4B0F
:1037F000DB6903F08043002B0DD00A4B9B6943F03B
:103800008043084A9361064B5B6A054A43F0804354
:103810005362012300E0002318461037BD4680BDE7
:1038200000200052F830002080B584B000AF7860EE
:103830003960FFF749FBB8603B68012B02D10823D0
:10384000FB6013E01A4BFB6010E07B68B3F1FF3FB5
:103850000CD0FFF739FB0246BB68D31A7A689A424C
:1038600002D37B68002B01D103231DE0114B1A69A1
:10387000FB681340FA689A42E7D03B68012B12D1EB
:103880000C4B1B6903F08053B3F1805F0BD10A4BE3
:103890009B6943F08053084A9361064B4FF0805276
:1038A0005A61012300E0002318461037BD4680BD51
:1038B0000800008000200052F830002080B584B05D
:1038C00000AF7860484B1B7D012B01D1022387E0BC
:1038D000454B01221A75444B00229A6101214CF29A
:1038E0005030FFF70FFF0346002B02D00123FB737C
:1038F00001E00023FB73FB7B002B6DD17B681B6811
:1039000003F00103002B14D07B685B68012B08D106
:103910007B689A687B68DB691946104600F0BEF840
:1039200007E07B689A687B68DB691946104600F0FF
:10393000CFF87B681B6803F00203002B04D07B6880
:10394000DB68184600F004F97B681B6803F0040389
:10395000002B07D07B685A697B689B691946104623
:1039600000F026F97B681B6803F00803002B09D0E0
:103970007B68186A7B68596A7B689A6A7B68DB692E
:1039800000F0BEF97B681B6803F01003002B04D025
:103990007B681B69184600F00DFA7B681B6803F012
:1039A0004003002B08D07B68D86A7B68196B7B6862
:1039B0005B6B1A4600F020FA7B681B6803F020035B
:1039C000002B09D07B68986B7B68D96B7B681A6C7D
:1039D0007B68DB6900F056FA034B00221A75FB7B0B
:1039E00018461037BD4680BDF830002080B582B043
:1039F00000AF78607B6816221A6000F0BDF80246BE
:103A00007B68DA6000F066F902467B689A6100F034
:103A1000E5F902467B681A617B68DB69012B29D1D5
:103A20007B681B6843F029027B681A607B68181D5D
:103A30007B6803F108017B68DB691A4600F062F8D5
:103A40007B6803F120007B6803F124017B6803F1AC
:103A500028027B68DB6900F075F97B6803F13800A8
:103A60007B6803F13C017B6803F140027B68DB6902
:103A700000F02CFA7B6803F130027B68343319467E
:103A8000104600F0E3F97B681B6843F040027B6856
:103A90001A6000BF0837BD4680BD000080B483B007
:103AA00000AF786039603B6803F00103002B07D05A
:103AB000064BDA6B7B68DBB2DB4304491340CB6314
:103AC00000BF0C37BD465DF8047B704700200052F4
:103AD00080B483B000AF786039603B6803F00103C5
:103AE000002B06D0064BDA6B7B68DBB2044913432C
:103AF000CB6300BF0C37BD465DF8047B704700BF49
:103B00000020005280B487B000AFF860B9607A60DE
:103B100000237B617B68012B02D10C4B9B6B7B618B
:103B20007B69DB43DAB2BB681A60BB681B68002B99
:103B300003D1FB6800221A6002E0FB6801221A60D0
:103B400000BF1C37BD465DF8047B70470020005263
:103B500080B483B000AF7860064B1B6A23F47F42C9
:103B600004497B6813430B6200BF0C37BD465DF808
:103B7000047B70470020005280B483B000AF0B4B31
:103B8000DB6903F47F437B607B68B3F52A4F06D083
:103B90007B68B3F54C4F02D04FF4AA4300E07B683A
:103BA00018460C37BD465DF8047B70470020005274
:103BB00080B485B000AF786039600023FB600023DB
:103BC000BB607B6803F00103002B09D03B6803F066
:103BD0001003FA681343FB60BB6843F01003BB603B
:103BE0007B6803F00203002B09D03B6803F040031D
:103BF000FA681343FB60BB6843F04003BB607B681B
:103C000003F00403002B09D03B6803F08003FA683B
:103C10001343FB60BB6843F08003BB607B6803F029
:103C20000803002B09D03B6803F40033FA68134300
:103C3000FB60BB6843F40033BB607B6803F0100398
:103C4000002B09D03B6803F48023FA681343FB6020
:103C5000BB6843F48023BB607B6803F02003002B28
:103C600009D03B6803F4C013FA681343FB60BB68D8
:103C700043F4C013BB607B6803F04003002B09D002
:103C80003B6803F40013FA681343FB60BB6843F41A
:103C90000013BB607B6803F08003002B09D03B68F6
:103CA00003F00053FA681343FB60BB6843F0005312
:103CB000BB60074B1A6ABB68DB431A400449FB68C8
:103CC00013430B6200BF1437BD465DF8047B704799
:103CD0000020005280B483B000AF074BDB697B60EB
:103CE0007A68064B13407B607B6818460C37BD46EC
:103CF0005DF8047B704700BF00200052F300FFFF17
:103D000080B485B000AFF860B9607A603B603B6812
:103D100003F00103002B0DD0BB6803F178431A0AAE
:103D20007B6803F178431B0A1B041A430449FB68B0
:103D30001343CB6200BF1437BD465DF8047B704768
:103D40000020005280B487B000AFF860B9607A609C
:103D50003B6000237B6100233B613B68012B05D165
:103D6000124B9B6A7B614FF000633B617B6903F000
:103D70000042FB681A607B691A020D4B13403A69D6
:103D80001A44BB681A607B691B0CC3F30B027B6887
:103D90001A607B681B681A023B691A447B681A60C8
:103DA00000BF1C37BD465DF8047B70470020005201
:103DB00000FF0F0080B483B000AF7860064B1B6A31
:103DC00023F00C0204497B6813430B6200BF0C37DD
:103DD000BD465DF8047B70470020005280B400AF00
:103DE000044BDB6903F00C031846BD465DF8047B09
:103DF000704700BF0020005280B485B000AFF8606B
:103E0000B9607A60FB6803F00103002B08D00D4B0A
:103E10005A6C0D4B1340BA68120C0A4913434B6499
:103E2000FB6803F00203002B06D0064B5B6C9AB2D2
:103E300004497B6813434B6400BF1437BD465DF8EB
:103E4000047B7047002000520000FFFF80B485B063
:103E500000AF78603960094B1B6CFB60FB681A048B
:103E60007B681A60FA68064B13403A68136000BF1B
:103E70001437BD465DF8047B704700BF0020005238
:103E80000000FFFF80B485B000AFF860B9607A60D1
:103E90003B603B6803F00103002B0FD0BB6803F1CC
:103EA00078431A0A7B6803F178431B0A1B041A4300
:103EB000FB6803F00043044913434B6300BF14370E
:103EC000BD465DF8047B70470020005280B487B087
:103ED00000AFF860B9607A603B6000237B6100232B
:103EE0003B613B68012B05D1124B1B6B7B614FF093
:103EF00000633B617B6903F00042FB681A607B69E9
:103F00001A020D4B13403A691A44BB681A607B6968
:103F10001B0CC3F30B027B681A607B681B681A02D8
:103F20003B691A447B681A6000BF1C37BD465DF8C8
:103F3000047B70470020005200FF0F0080B489B05E
:103F400000AF786039600023FB61894B7B6194E1AD
:103F50003B681A680121FB6901FA03F313403B61D6
:103F60003B69002B00F086813B685B6803F003032C
:103F7000012B05D03B685B6803F00303022B30D1B3
:103F80007B689B68BB61FB695B00032202FA03F359
:103F9000DB43BA691340BB613B68DA68FB695B00CD
:103FA00002FA03F3BA691343BB617B68BA699A608A
:103FB0007B685B68BB610122FB6902FA03F3DB43A8
:103FC000BA691340BB613B685B681B0903F00102DF
:103FD000FB6902FA03F3BA691343BB617B68BA69F0
:103FE0005A603B685B6803F00303032B17D07B68C0
:103FF000DB68BB61FB695B00032202FA03F3DB436E
:10400000BA691340BB613B689A68FB695B0002FABE
:1040100003F3BA691343BB617B68BA69DA603B6832
:104020005B6803F00303022B23D1FB69DA087B688A
:10403000083253F82230BB61FB6903F007039B0091
:104040000F2202FA03F3DB43BA691340BB613B68FA
:104050001A69FB6903F007039B0002FA03F3BA69CC
:104060001343BB61FB69DA087B680832B96943F81E
:1040700022107B681B68BB61FB695B00032202FAAC
:1040800003F3DB43BA691340BB613B685B6803F031
:104090000302FB695B0002FA03F3BA691343BB61D5
:1040A0007B68BA691A603B685B6803F44033002B95
:1040B00000F0E0802F4BD3F8F4302E4A43F0020397
:1040C000C2F8F4302B4BD3F8F43003F00203FB605A
:1040D000FB68294AFB699B08023352F82330BB6115
:1040E000FB6903F003039B000F2202FA03F3DB4397
:1040F000BA691340BB617B68204A934252D07B6807
:104100001F4A934231D07B681E4A93422BD07B6872
:104110001D4A934225D07B681C4A93421FD07B687E
:104120001B4A934219D07B681A4A934213D07B688A
:10413000194A93420DD07B68184A934207D07B6896
:10414000174A934201D109232DE00A232BE00823CB
:1041500029E0072327E0062325E0052323E00423A5
:1041600021E003231FE002231DE001231BE000BF29
:104170008000005800440258000400580000025813
:104180000004025800080258000C0258001002589F
:104190000014025800180258001C0258002002584F
:1041A000002402580023FA6902F0030292009340AF
:1041B000BA691343BB613849FB699B080233BA698A
:1041C00041F823204FF0B0431B68BB613B69DB43E0
:1041D000BA691340BB613B685B6803F48013002B32
:1041E00003D0BA693B691343BB614FF0B042BB696E
:1041F00013604FF0B0435B68BB613B69DB43BA6956
:104200001340BB613B685B6803F40013002B03D0D1
:10421000BA693B691343BB614FF0B042BB6953605D
:104220007B695B68BB613B69DB43BA691340BB6177
:104230003B685B6803F40033002B03D0BA693B6929
:104240001343BB617B69BA695A607B691B68BB61B8
:104250003B69DB43BA691340BB613B685B6803F4AD
:104260008033002B03D0BA693B691343BB617B6980
:10427000BA691A60FB690133FB613B681A68FB6924
:1042800022FA03F3002B7FF463AE00BF00BF243794
:10429000BD465DF8047B70470004005880B487B0C9
:1042A00000AF7860396000237B61754B3B61D9E0DA
:1042B00001227B6902FA03F33A681340FB60FB6852
:1042C000002B00F0CC806F4A7B699B08023352F8C8
:1042D0002330BB607B6903F003039B000F2202FACB
:1042E00003F3BA681340BB607B68674A934237D0D8
:1042F0007B68664A934231D07B68654A93422BD0F3
:104300007B68644A934225D07B68634A93421FD0FE
:104310007B68624A934219D07B68614A934213D00A
:104320007B68604A93420DD07B685F4A934207D016
:104330007B685E4A934201D1092312E00A2310E010
:1043400008230EE007230CE006230AE0052308E01B
:10435000042306E0032304E0022302E0012300E03B
:1043600000237A6902F0030292009340BA689A42ED
:1043700036D13B691A68FB68DB431A403B691A6017
:104380003B695A68FB68DB431A403B695A604FF04F
:10439000B0435A68FB68DB434FF0B04113404B60B9
:1043A0004FF0B0431A68FB68DB434FF0B041134055
:1043B0000B607B6903F003039B000F2202FA03F3F7
:1043C000BB60304A7B699B08023352F82310BB68FC
:1043D000DA432C487B699B080A40023340F82320CB
:1043E0007B681A687B695B00032101FA03F31A43B7
:1043F0007B681A607B69DA087B68083253F8221000
:104400007B6903F007039B000F2202FA03F3DB43EF
:104410007A69D20819407B68083243F822107B6819
:10442000DA687B695B00032101FA03F3DB431A407E
:104430007B68DA607B685A6801217B6901FA03F3C3
:10444000DB431A407B685A607B689A687B695B0033
:10445000032101FA03F3DB431A407B689A607B690E
:1044600001337B613A687B6922FA03F3002B7FF406
:104470001FAF00BF00BF1C37BD465DF8047B70470F
:104480008000005800040058000002580004025840
:1044900000080258000C025800100258001402587C
:1044A00000180258001C025800200258002402582C
:1044B00080B483B000AF78600B467B8013467B707E
:1044C0007B78002B03D07A887B689A6103E07B8835
:1044D0001A047B689A6100BF0C37BD465DF8047B07
:1044E000704780B584B000AF7860FEF7EDFCF860EF
:1044F0007B68002B01D101234AE07B6893F83D30B3
:10450000DBB2022B08D07B6880229A667B6800228F
:1045100083F83C2001233BE07B681B68DA687B68FA
:104520001B6822F03E02DA607B681B68DA687B68F1
:104530001B6822F00102DA6016E0FEF7C5FC0246B5
:10454000FB68D31A052B0FD97B689B6E43F04002A2
:104550007B689A667B68002283F83C207B68032294
:1045600083F83D20012313E07B681B68DB6803F0C0
:104570000103002BE1D17B681B681F225A607B6816
:10458000002283F83C207B68012283F83D20002331
:1045900018461037BD4680BDF0B58FB00AAF7860C1
:1045A0007B68002B01D1012316E17B681B68BB608F
:1045B0007B6893F8BD34DBB2002B06D17B68002208
:1045C00083F8BC247868FDF799FF7B68032283F8A1
:1045D000BD24BB68DB6B03F48073002B02D17B68C6
:1045E0000022DA607B681B68184606F01EFA7B68BA
:1045F0001B683B607E686D4606F110040FCC0FC54A
:104600000FCC0FC594E8030085E80300331D0ECBE3
:10461000386806F0E9F80346002B05D07B680222D3
:1046200083F8BD240123D7E07B681B68002118466E
:1046300006F00CFA0023FB734AE0FA7B7968134614
:10464000DB0013449B000B443D3301221A70FA7BBC
:1046500079681346DB0013449B000B443C33FA7B20
:104660001A70FA7BFB7B98B279681346DB0013441F
:104670009B000B44563302461A80FA7B7968134636
:10468000DB0013449B000B44403300221A70FA7B7A
:1046900079681346DB0013449B000B44443300222B
:1046A0001A60FA7B79681346DB0013449B000B44C5
:1046B000483300221A60FA7B79681346DB00134402
:1046C0009B000B444C3300221A60FB7B0133FB73CD
:1046D000FA7B7B685B689A42AFD30023FB7344E0AC
:1046E000FA7B79681346DB0013449B000B4403F20A
:1046F0007D2300221A70FA7B79681346DB0013448D
:104700009B000B4403F51F73FA7B1A70FA7B7968E0
:104710001346DB0013449B000B4403F52073002277
:104720001A70FA7B79681346DB0013449B000B4434
:1047300003F5217300221A60FA7B79681346DB00C7
:1047400013449B000B4403F5227300221A60FA7B8A
:1047500079681346DB0013449B000B4403F5237375
:1047600000221A60FB7B0133FB73FA7B7B685B687A
:104770009A42B5D37B681B683B607E686D4606F144
:1047800010040FCC0FC50FCC0FC594E8030085E8CB
:104790000300331D0ECB386806F0A4F90346002B46
:1047A00005D07B68022283F8BD24012314E07B68D6
:1047B000002283F838207B68012283F8BD247B68BF
:1047C0005B6A012B02D1786801F0CEF97B681B6827
:1047D000184607F035FA002318461437BD46F0BDD9
:1047E00080B582B000AF78607B68002B01D10123D7
:1047F00015E07B68032283F8BD247B681B6818469C
:1048000007F088F90346002B01D0012307E0786800
:10481000FDF7F8FE7B68002283F8BD2400231846CC
:104820000837BD4680BD80B584B000AF78607B6836
:104830001B68FB607B6893F8BC34012B01D1022319
:1048400022E07B68012283F8BC24FB68DB6B03F465
:104850008073002B09D17B689B6A012B05D1FB6813
:104860009B6B43F48032FB689A637B681B68184635
:1048700006F0CAF87B681B68184607F0C0F97B6829
:10488000002283F8BC24002318461037BD4680BDA3
:1048900080B584B000AF78607B681B68FB607B6884
:1048A00093F8BC34012B01D1022328E07B6801225C
:1048B00083F8BC247B681B68184606F0B6F87B6852
:1048C0001B68184607F0BCF97B681B681021184666
:1048D00006F066FAFB68DB6B03F48073002B09D1EA
:1048E0007B689B6A012B05D1FB689B6B23F48032AC
:1048F000FB689A637B68002283F8BC240023184677
:104900001037BD4680BD90B58DB000AF78607B6834
:104910001B683B623B6AFB617B681B68184607F0BB
:1049200043FA0346002B40F0B7847B681B681846A7
:1049300007F0A7F90346002B00F0AD84FB6903F5EF
:1049400000639B681B0AC3F30D027B68C3F8FC2459
:104950007B681B68184607F094F9034603F00203CE
:10496000022B07D17B681B685A697B681B6802F0C1
:1049700002025A617B681B68184607F082F90346F9
:1049800003F01003102B61D17B681B689A697B6868
:104990001B6822F010029A613B6A1B6ABB61BB690B
:1049A00003F00F021346DB0013449B0003F51E7354
:1049B0007A68134404337B61BB695B0C03F00F031B
:1049C000022B24D1BA6947F6F0731340002B35D07F
:1049D0007B69D968BB691B099BB2C3F30A039BB20D
:1049E0001A46386A06F06AFF7B69DA68BB691B09F8
:1049F000C3F30A031A447B69DA607B695A69BB69AD
:104A00001B09C3F30A031A447B695A6116E0BB69A8
:104A10005B0C03F00F03062B10D17B6803F2C44339
:104A200008221946386A06F049FF7B695A69BB6952
:104A30001B09C3F30A031A447B695A617B681B682C
:104A40009A697B681B6842F010029A617B681B6858
:104A5000184607F016F9034603F40023B3F5002FB8
:104A600040F0A78000237B627B681B68184607F034
:104A70001BF9B86299E0BB6A03F00103002B00F058
:104A80008E807B681B687A6AD2B21146184607F09E
:104A90003FF938613B6903F00103002B0CD07B6ABE
:104AA0005A01FB69134403F530631A4601239360EE
:104AB000796A786800F0D2FE3B6903F00803002BA6
:104AC0000CD07B6A5A01FB69134403F530631A4624
:104AD00008239360796A786800F0A8FF3B6903F0C7
:104AE0001003002B08D07B6A5A01FB69134403F5BD
:104AF00030631A46102393603B6903F00203002BD6
:104B000030D03B6A5B6903F08003802B09D1FB69DD
:104B100003F500635B68FA6902F5006243F48063A1
:104B200053607A6A1346DB0013449B0003F51E733F
:104B30007A68134404337B617B69DB78012B08D1ED
:104B40007B690022DA707B6ADBB219467868FDF770
:104B50002FFE7B6A5A01FB69134403F530631A4642
:104B6000022393603B6903F02003002B08D07B6A8B
:104B70005A01FB69134403F530631A4620239360FE
:104B80003B6903F40053002B09D07B6A5A01FB698F
:104B9000134403F530631A464FF4005393607B6A65
:104BA00001337B62BB6A5B08BB62BB6A002B7FF48C
:104BB00062AF7B681B68184607F063F8034603F48E
:104BC0008023B3F5802F40F0DB807B681B6818469C
:104BD00007F084F8B86200237B62CDE0BB6A03F083
:104BE0000103002B00F0C2807B681B687A6AD2B296
:104BF0001146184607F0AAF838613B6903F0010333
:104C0000002B57D07B6A03F00F03012202FA03F353
:104C1000FB60FB6903F500635A6BFB68DB43F969D2
:104C200001F5006113404B637B6A5A01FB69134431
:104C300003F510631A46012393607B68DB68012B40
:104C400032D179687A6A1346DB0013449B000B4427
:104C50004833196878687A6A1346DB0013449B006E
:104C6000034444331B68194478687A6A1346DB00AE
:104C700013449B000344483319607B6A002B13D113
:104C800079687A6A1346DB0013449B000B444C336B
:104C90001B68002B08D17B6818687B6803F2C4434B
:104CA0001A46012107F0B2F87B6ADBB21946786830
:104CB000FDF7F9FC3B6903F00803002B08D07B6A81
:104CC0005A01FB69134403F510631A4608239360E5
:104CD0003B6903F01003002B08D07B6A5A01FB6983
:104CE000134403F510631A46102393603B6903F0E5
:104CF0004003002B08D07B6A5A01FB69134403F57B
:104D000010631A46402393603B6903F00203002BB3
:104D100023D0796A386A06F043F87A6A1346DB00D2
:104D200013449B0038337A68134404337B617B69F6
:104D3000DB78012B08D17B690022DA707B6ADBB259
:104D400019467868FDF746FD7B6A5A01FB691344F2
:104D500003F510631A46022393603B6903F0800356
:104D6000002B03D0796A786800F0EAFC7B6A013393
:104D70007B62BB6A5B08BB62BB6A002B7FF42EAF11
:104D80007B681B68184606F07CFF034603F000436F
:104D9000B3F1004F22D1FB6903F500635B68FA6948
:104DA00002F5006223F0010353607B6893F8F4344A
:104DB000012B08D17B68002283F8F4240021786855
:104DC00000F0F6FE02E07868FDF7E4FC7B681B6803
:104DD0005A697B681B6802F000425A617B681B6855
:104DE000184606F04EFF034603F40063B3F5006F68
:104DF00012D1FB6903F500639B6803F00103012BEB
:104E000002D17868FDF7A0FC7B681B685A697B6853
:104E10001B6802F400625A617B681B68184606F042
:104E200030FF034603F00063B3F1006F21D17B68CC
:104E30001B685A697B681B6802F000625A617B68D4
:104E400093F8F434002B11D17B68012283F8F42409
:104E50007B681B685B6D9B0803F00F027B68C3F8DF
:104E6000F8240121786800F0A3FE02E07868FDF7DD
:104E70006BFC7B681B68184606F003FF034603F4CF
:104E80008053B3F5805F40F0B780FB6903F50063A2
:104E90005B68FA6902F5006223F0010353607B68E6
:104EA0001B681021184605F07BFF0023FB6246E0DB
:104EB000FB6A5A01FB69134403F510631A464FF667
:104EC0007F339360FB6A5A01FB69134403F5106357
:104ED0001B68FA6A5101FA690A4402F5106223F468
:104EE00000131360FB6A5A01FB69134403F5306336
:104EF0001A464FF67F339360FB6A5A01FB691344ED
:104F000003F530631B68FA6A5101FA690A4402F535
:104F1000306223F400131360FB6A5A01FB691344E7
:104F200003F530631B68FA6A5101FA690A4402F515
:104F3000306243F000631360FB6A0133FB627B68FD
:104F40005B68FA6A9A42B3D3FB6903F50063DB69D5
:104F5000FA6902F5006243F00113D3617B681B6BB1
:104F6000002B16D0FB6903F50063D3F88430FA698F
:104F700002F5006243F00B03C2F88430FB6903F5CD
:104F800000635B6CFA6902F5006243F00B03536443
:104F900015E0FB6903F500635A69FB6903F50063DB
:104FA000194642F22B0313434B61FB6903F500637F
:104FB0001B69FA6902F5006243F00B031361FB6998
:104FC00003F500631B68FA6902F5006223F4FE63CF
:104FD00013607B6818687B68DB68D9B27B6803F272
:104FE000C4431A4606F012FF7B681B685A697B6847
:104FF0001B6802F480525A617B681B68184606F0F1
:1050000040FE034603F40053B3F5005F24D17B68F0
:105010001B68184606F0D6FE7B681B68184605F02C
:105020003CFF03461A467B681A617B681C6802F0E5
:10503000BDFA01467B681B69DBB21A46204605F0C3
:1050400041FC7868FDF757FB7B681B685A697B68F1
:105050001B6802F400525A617B681B68184606F010
:1050600010FE034603F00803082B0AD17868FDF709
:1050700034FB7B681B685A697B681B6802F0080276
:105080005A617B681B68184606F0FBFD034603F077
:105090008003802B22D13B6A9B6923F080023B6A0C
:1050A0009A6101237B6214E079687A6A1346DB0017
:1050B00013449B000B4403F27F231B78012B05D183
:1050C0007B6ADBB21946786800F009FB7B6A013322
:1050D0007B627B685B687A6A9A42E5D37B681B686F
:1050E000184606F0CEFD034603F48013B3F5801F87
:1050F0003BD101237B622BE07B6A5A01FB6913449D
:1051000003F510631B68BB6179687A6A1346DB009C
:1051100013449B000B4440331B78012B15D1BB6912
:10512000002B12DA79687A6A1346DB0013449B007D
:105130000B443F3301221A707B6ADBB263F07F03BA
:10514000DBB21946786800F0CAFA7B6A01337B62E9
:105150007B685B687A6A9A42CED37B681B685A691F
:105160007B681B6802F480125A617B681B681846D2
:1051700006F087FD034603F40013B3F5001F55D175
:1051800001237B6245E07B6A5A01FB69134403F506
:1051900030631B68BB6179687A6A1346DB0013448D
:1051A0009B000B4403F520731B78012B2ED1BB69A8
:1051B000002B2BDABB6903F480327B68D3F8FC3414
:1051C00003F001039A4221D179687A6A1346DB0021
:1051D00013449B000B4403F27F2301221A703B6AA5
:1051E0009B6943F080023B6A9A613B6A5B6903F00A
:1051F0008003002B0AD1FB6903F500635B68FA6941
:1052000002F5006243F40073536007E07B6A0133E8
:105210007B627B685B687A6A9A42B4D37B681B685E
:105220005A697B681B6802F400125A617B681B682C
:10523000184606F026FD034603F08043B3F1804F85
:105240000AD17868FDF7D8FA7B681B685A697B68D1
:105250001B6802F080425A617B681B68184606F0A2
:1052600010FD034603F00403042B15D17B681B6873
:105270005B68BB61BB6903F00403002B02D0786854
:10528000FDF7C8FA7B681B6859687B681B68BA69B8
:105290000A435A6000E000BF3437BD4690BD80B578
:1052A00082B000AF78600B46FB707B6893F8BC342B
:1052B000012B01D1022313E07B68012283F8BC2477
:1052C0007B68FA7883F838207B681B68FA78114687
:1052D000184606F06EFC7B68002283F8BC2400238D
:1052E00018460837BD4680BD80B584B000AF7860F1
:1052F000084611461A460346FB700B463B80134690
:10530000BB700023FB7297F90330002B0FDAFB7898
:1053100003F00F021346DB0013449B0038337A6816
:1053200013440433FB60FB6801225A700FE0FB78E2
:1053300003F00F021346DB0013449B0003F51E73BA
:105340007A6813440433FB60FB6800225A70FB78D0
:1053500003F00F03DAB2FB681A703A88FB689A60B0
:10536000FB68BA781A71FB685B78002B04D0FB6885
:105370001B789AB2FB685A83BB78022B02D1FB6878
:1053800000225A717B6893F8BC34012B01D10223AF
:105390000EE07B68012283F8BC247B681B68F968F7
:1053A000184605F09FFD7B68002283F8BC24FB7A39
:1053B00018461037BD4680BD80B584B000AF786018
:1053C0000B46FB7097F90330002B0FDAFB7803F0E4
:1053D0000F021346DB0013449B0038337A681344F2
:1053E0000433FB60FB6801225A700FE0FB7803F086
:1053F0000F021346DB0013449B0003F51E737A680B
:1054000013440433FB60FB6800225A70FB7803F0FE
:105410000F03DAB2FB681A707B6893F8BC34012B77
:1054200001D102230EE07B68012283F8BC247B6853
:105430001B68F968184605F0DDFD7B68002283F8DB
:10544000BC24002318461037BD4680BD80B586B009
:1054500000AFF8607A603B600B46FB72FB7A03F0AA
:105460000F021346DB0013449B0003F51E73FA681A
:10547000134404337B617B697A68DA607B693A683C
:105480001A617B6900225A617B6900225A70FB7A9B
:1054900003F00F03DAB27B691A70FB68DB68012B3B
:1054A00002D17A687B69DA61FB681868FB68DB689F
:1054B000DBB21A46796905F079FE002318461837E1
:1054C000BD4680BD80B483B000AF78600B46FB70F2
:1054D000FB7803F00F0279681346DB0013449B004E
:1054E0000B4403F524731B6818460C37BD465DF862
:1054F000047B704780B586B000AFF8607A603B608F
:105500000B46FB72FB7A03F00F021346DB001344D9
:105510009B003833FA68134404337B617B697A68F3
:10552000DA607B693A681A617B6900225A617B699B
:1055300001225A70FB7A03F00F03DAB27B691A700A
:10554000FB68DB68012B02D17A687B69DA61FB6852
:105550001868FB68DB68DBB21A46796905F026FE3D
:10556000002318461837BD4680BD80B584B000AF13
:1055700078600B46FB70FB7803F00F027B685B687A
:105580009A4201D9012350E097F90330002B0FDA3A
:10559000FB7803F00F021346DB0013449B00383303
:1055A0007A6813440433FB60FB6801225A700DE0F3
:1055B000FA781346DB0013449B0003F51E737A68E8
:1055C00013440433FB60FB6800225A70FB6801221D
:1055D0009A70FB7803F00F03DAB2FB681A707B68ED
:1055E00093F8BC34012B01D102231EE07B68012219
:1055F00083F8BC247B681B68F968184606F0B6F986
:10560000FB7803F00F03002B0AD17B6818687B68D6
:10561000DB68D9B27B6803F2C4431A4606F0F6FB96
:105620007B68002283F8BC24002318461037BD464F
:1056300080BD80B584B000AF78600B46FB70FB780E
:1056400003F00F027B685B689A4201D9012342E0B4
:1056500097F90330002B0FDAFB7803F00F021346A3
:10566000DB0013449B0038337A6813440433FB6037
:10567000FB6801225A700FE0FB7803F00F0213461B
:10568000DB0013449B0003F51E737A681344043354
:10569000FB60FB6800225A70FB6800229A70FB785E
:1056A00003F00F03DAB2FB681A707B6893F8BC341E
:1056B000012B01D102230EE07B68012283F8BC2478
:1056C0007B681B68F968184606F0BEF97B68002203
:1056D00083F8BC24002318461037BD4680BD80B532
:1056E00084B000AF78600B46FB7097F90330002B55
:1056F0000CDAFB7803F00F021346DB0013449B0027
:1057000038337A6813440433FB600CE0FB7803F011
:105710000F021346DB0013449B0003F51E737A68E7
:1057200013440433FB607B681B68F968184605F076
:10573000DDFF0346FB72FB7A18461037BD4680BD7D
:1057400080B58AB002AF786039607B681B687B6186
:105750007B693B613A681346DB0013449B00383396
:105760007A6813440433FB60FB685A69FB681B6961
:105770009A4201D901236CE0FB681A69FB685B69F6
:10578000D31AFB61FB689B68FA699A4202D9FB68ED
:105790009B68FB61FB6903339B08BB612BE0FB68E3
:1057A0001A69FB685B69D31AFB61FB689B68FA693D
:1057B0009A4202D9FB689B68FB61FB6903339B0833
:1057C000BB61FB68D9683B68DAB2FB6998B27B6859
:1057D000DB68DBB200930346786906F031F8FB68BA
:1057E000DA68FB691A44FB68DA60FB685A69FB698E
:1057F0001A44FB685A613B685A013B69134403F53C
:1058000010639B699BB2BA699A4209D8FB685A69CE
:10581000FB681B699A4203D2FB681B69002BBED14F
:10582000FB681A69FB685B699A4211D83B6803F010
:105830000F03012202FA03F3BB603B6903F5006327
:105840005A6BBB68DB43396901F5006113404B6358
:10585000002318462037BD4680BD000080B588B0C3
:1058600000AF786039607B681B68FB61FB69BB61D6
:10587000FB693C3304331B687B613B685A01BB699D
:10588000134403F530639B683B617B68DB68012B45
:105890007BD13B6903F00803002B15D07B69614A7B
:1058A000934240F2B9803B6903F40043002B00F0BF
:1058B000B3803B685A01BB69134403F530631A4651
:1058C0004FF400439360A7E03B6903F02003002BF3
:1058D00009D03B685A01BB69134403F530631A468B
:1058E0002023936098E03B6903F02803002B40F0ED
:1058F00093807B694B4A93420FD93B6903F4004381
:10590000002B0AD03B685A01BB69134403F530638E
:105910001A464FF4004393607EE03A681346DB007A
:1059200013449B0003F51E737A6813440433FB6031
:10593000FB681A6A3B685901BB690B4403F5306385
:105940001B69C3F31203D21AFB685A613B68002B30
:1059500014D1FB681B69002B09D17B6818687B6830
:1059600003F2C4431A46012106F050FA06E0FB6830
:10597000DA68FB685B691A44FB68DA603B68DBB293
:1059800019467868FCF774FE46E07B69264A934224
:1059900024D13B6903F40043002B0AD03B685A0131
:1059A000BB69134403F530631A464FF40043936018
:1059B00032E03B6903F02003002B08D03B685A011A
:1059C000BB69134403F530631A46202393603B6898
:1059D000DBB219467868FCF74BFE1DE03B68002BF4
:1059E00014D179683A681346DB0013449B000B44DA
:1059F00003F523731B68002B08D17B6818687B684C
:105A000003F2C4431A46002106F000FA3B68DBB2F9
:105A100019467868FCF72CFE002318462037BD464F
:105A200080BD00BF0A30544F0A31544F80B586B054
:105A300000AF786039607B681B687B617B693B6184
:105A40007B693C3304331B68FB603B685A013B694C
:105A5000134403F530639B68BB60FB68154A9342AF
:105A60000ED9BB6803F40043002B09D03B685A01F0
:105A70003B69134403F530631A464FF400439360C7
:105A80007868FCF7E3FDFB680A4A93420CD97B680F
:105A9000DB68012B08D17B6818687B6803F2C4437C
:105AA0001A46012106F0B2F9002318461837BD4600
:105AB00080BD00BF0A30544F80B485B000AF78601D
:105AC0000B46FB7013463B807B681B685B6ABB60C0
:105AD000FB78002B07D13B8819047B681B68BA68E8
